:100000000C9434000C943E000C943E000C943E0082
:100010000C943E000C943E000C943E000C943E0068
:100020000C943E000C943E000C943E000C943E0058
:100030000C943E000C943E000C943E000C943E0048
:100040000C943E000C943E000C943E000C943E0038
:100050000C943E000C943E000C943E000C943E0028
:100060000C943E000C943E0011241FBECFEFD8E04C
:10007000DEBFCDBF0E9440000C946B000C940000CA
:1000800014BE259A8091000187FD1092000180E046
:1000900090E02091000130E08217930734F08091C6
:1000A00000018F5F80930001FFCF2D9A2FEF35EA7B
:1000B0004EE0215030404040E1F700C000002D9854
:1000C0002FEF35EA4EE0215030404040E1F700C0CC
:0A00D00000000196DECFF894FFCF88
:00000001FF
