:100000000C9434000C9451000C9451000C94510049
:100010000C9451000C9451000C9451000C9451001C
:100020000C9451000C9451000C9451000C9451000C
:100030000C9451000C9451000C9451000C945100FC
:100040000C9451000C9451000C9451000C945100EC
:100050000C9451000C9451000C9451000C945100DC
:100060000C9451000C94510011241FBECFEFD8E026
:10007000DEBFCDBF11E0A0E0B1E0E2E8F7E002C0F2
:1000800005900D92AE30B107D9F721E0AEE0B1E0B6
:1000900001C01D92A431B207E1F70E9472000C94D6
:1000A000BF030C9400009091C00095FFFCCF80939B
:1000B000C60008958091C00087FFFCCF8091C600E4
:1000C00008951092C50087E68093C400E0ECF0E04C
:1000D00080818D7F808386E08093C20088E1809359
:1000E000C1000895CDB7DEB76C970FB6F894DEBFA8
:1000F0000FBECDBF0E9461008EE0DE011F96FD01A4
:10010000282F11922A95E9F792E09A8B23E530E0A7
:10011000388F2F8B9E012F5F3F4FF90111928A95E7
:10012000E9F781E08C838AE590E09C878B87B09328
:100130001101A093100130930F0120930E0100E0F4
:1001400011E080910E0190910F010E94BF00FFEF1E
:1001500020E732E0F15020403040E1F700C00000DD
:10016000282F082E000C330B3F938F931F930F9370
:100170000E94FD000F900F900F900F90E2CFCF9351
:10018000DF93EC018B8180FF33C086FF0CC08F7B37
:100190008B838E819F8101969F838E838A8190E0DD
:1001A000DF91CF91089582FF15C0E881F981908198
:1001B000292F092E000C330B80629923C1F0319650
:1001C000F983E8838E819F8101969F838E83C90185
:1001D0009927E6CFEA85FB85CE0109959C0197FF1B
:1001E000F1CF9B812F3F3F4F31F080E2892B8B83F2
:1001F0008FEF9FEFD5CF80E1F9CFB0E0A0E0E3E053
:10020000F1E00C949803FE01359661917191AF0174
:1002100080911001909111010E941101E2E00C9473
:10022000B403AFE0B0E0E7E1F1E00C9488037C01B7
:100230003B018A01DC0117961C921E9216971396B9
:100240008C9181FFBEC19AE0292EFE0131964F01AB
:10025000D70113969C91F30193FD859193FF8191B2
:100260003F01882309F444C1853239F493FD859117
:1002700093FF81913F01853229F4B70190E00E94FC
:10028000FA02E6CFB12C412C512CBFE1B51538F064
:100290008B3209F188F4803201F1833221F157FC6D
:1002A0003AC020ED280F2A3040F556FE1FC0B29C00
:1002B000200D1124B22E06C08D3291F0803379F7D3
:1002C000689450F8F30193FD859193FF81913F016C
:1002D0008111DBCF20C0689451F8689452F8F2CFB6
:1002E000689453F8EFCF689454F8ECCF429C200DFB
:1002F0001124422E689455F8E5CF8E3229F456FC2D
:10030000F7C0689456F8DECF8C3619F4689457F825
:10031000D9CF8836B9F2982F9F7D95549330C0F08D
:10032000833681F18337A1F1833509F05BC0D801B1
:10033000CD90DD908D016B2D70E056FC02C06FEF0B
:100340007FEFC6010E94E4025C01689457F80AC07E
:100350000C5F1F4FEFE3E983AA24A394B12C64013F
:10036000E89457F853FE29C0342CA114B10451F578
:10037000332009F46DCFB70180E290E00E94FA02C9
:100380003A94F6CFD8018C9189830E5F1F4FE4CF4A
:10039000F801C190D1908F016B2D70E056FC02C026
:1003A0006FEF7FEFC6010E94EF025C01D9CFB7016A
:1003B00080E290E00E94FA024A944A141B0409F079
:1003C000B0F7D2CFF60157FC859157FE81916F01AE
:1003D000B70190E00E94FA0231103A94B1E0AB1AF2
:1003E000B108C3CF843619F0893609F071C0F8011D
:1003F00057FE67C061917191819191918F01E52DB7
:10040000EF76DE2E97FF09C09095809570956195E7
:100410007F4F8F4F9F4F6894D7F82AE030E0A401B8
:100420000E942A03C82EC818AC2C5D2CD6FE0CC026
:10043000E89450F8CB1440F4D4FE05C0D2FC03C0BD
:100440005D2D5E7E552EAB2C54FE93C0FE01EC0D4F
:10045000F11D8081803309F085C0652D697E562E9F
:10046000752D7870372E53FC93C050FE8DC0BC2C78
:10047000A41410F4B40CBA1854FE90C0B70180E371
:1004800090E00E94FA0252FE07C088E751FC88E51E
:1004900090E0B7010E94FA02CB1408F48BC0CA9412
:1004A000D12C8FEFC81AD80AC80CD91CD6018E914E
:1004B0006D01B70190E00E94FA028C149D04B1F71F
:1004C00057CF61917191072E000C880B990B96CF35
:1004D000D52CE894D4F82AE0853729F1F52DF97F59
:1004E000DF2E8037A1F058F48835A1F08F36D1F097
:1004F000F701868197812F96E2E10C94A403883757
:10050000B9F7D4FE02C06894D2F820E10CC0689418
:10051000D4F8F7CF54FE03C02F2F2660D22E20E14F
:1005200032E002C028E030E0F801D7FE15C041916A
:100530005191619171914C875D876E877F878F01A3
:10054000A4016C857D858E859F850E942A03C82E17
:10055000C818E894D7F868CF81919191AC0170E008
:1005600060E0E9CF52FC02C0A3947ACFA394A39495
:1005700077CF852D867809F473CFF6CFB70180E267
:1005800090E00E94FA02A394A414C0F3312C74CF1B
:10059000342C3A18A41408F46FCFF8CF852D867840
:1005A00009F47ACF8BE251FE80E257FC8DE2B7016D
:1005B00090E070CFB70180E390E00E94FA02BA9415
:1005C0006BCF8FEF9FEF97CFFC010590615070408C
:1005D0000110D8F7809590958E0F9F1F0895FC010C
:1005E0006150704001900110D8F7809590958E0F62
:1005F0009F1F08950F931F93CF93DF93182F092FF9
:10060000EB018B8181FD09C01FEF0FEF812F902F30
:10061000DF91CF911F910F91089582FF14C02E8119
:100620003F818C819D81281739073CF4E881F9814D
:10063000CF0101969983888310838E819F810196D3
:100640009F838E83E3CFE885F985812F0995892BD8
:10065000A1F3DACFFA01AA27283051F1203181F134
:10066000E8946F936E7F6E5F7F4F8F4F9F4FAF4FBA
:10067000B1E03ED0B4E03CD0670F781F891F9A1FCD
:10068000A11D680F791F8A1F911DA11D6A0F711D81
:10069000811D911DA11D20D009F468943F912AE08D
:1006A000269F11243019305D3193DEF6CF01089575
:1006B000462F4770405D4193B3E00FD0C9F7F6CFA6
:1006C000462F4F70405D4A3318F0495D31FD40526E
:1006D000419302D0A9F7EACFB4E0A6959795879504
:1006E00077956795BA95C9F70097610571050895E3
:1006F0009B01AC010A2E069457954795379527958F
:10070000BA95C9F7620F731F841F951FA01D089526
:100710002F923F924F925F926F927F928F929F9211
:10072000AF92BF92CF92DF92EF92FF920F931F93FF
:10073000CF93DF93CDB7DEB7CA1BDB0B0FB6F894B0
:10074000DEBF0FBECDBF09942A88398848885F84F0
:100750006E847D848C849B84AA84B984C884DF8061
:10076000EE80FD800C811B81AA81B981CE0FD11D45
:100770000FB6F894DEBF0FBECDBFED010895F8941B
:02078000FFCFA9
:0E078200596F752077726F74652025630A0029
:00000001FF
